:100000000C94C2020C94DF020C94DF020C94DF0209
:100010000C94DF020C94DF020C94DF020C94DF02DC
:100020000C94DF020C94DF020C94BB240C948F25FB
:100030000C94DB1F0C94DF020C94DF020C94DF02A3
:100040000C94DF020C94DF020C94DF020C94DF02AC
:100050000C94DF020C9462200C94DF020C94DF02FB
:100060000C94DF020C94DF020C94DF020C94DF028C
:100070000C94DF020C94DF020C94DF020C94DF027C
:100080000C94DF020C94DF020C94DF020C94DF026C
:100090000C94DF020C94DF020C94DF020C94DF025C
:1000A0000C94DF020C94DF020C94DF022900140090
:1000B0001A000800150017001C0000002A004C0060
:1000C000130012000C0018002B000400160007009B
:1000D00009000A000B0000002800000034000F0097
:1000E0000E000D00E1001D001B00060019000500B8
:1000F00011000000E5003800370036001000000055
:10010000E000E200E30021522C4100002A420000FE
:10011000E4002252E600E7000000000035001E0067
:100120001F00200021002200230000002E002D00CF
:100130002700260025002400007C237825782778D6
:10014000A9002F0030000000010000003300230050
:10015000220021002178247826782878AA002F020E
:10016000300200000100520020001F001E000000AD
:100170002078010001000100010000004C00000097
:100180004F005100500027000000000035021E0201
:100190001F02200221022202230200002E022D0251
:1001A0002702260225022402010001000100490065
:1001B0004B004A0001000000010000003302010072
:1001C000010001000100010001004C004E004D0043
:1001D0000100000001000100010001000100000019
:1001E00001000100010001004C00000001000000BE
:1001F0000100010001000100000000001E0F0500C9
:10020000047F3F1F643214643214783C1E1E140AAB
:10021000052223252628292A2C2D2F303233353646
:10022000383A3B3D3E4042434547494A4C4E505187
:10023000535557595A5C5E6062646668696B6D6FAE
:1002400071737577797B7D7F81838587898A8C8EB1
:1002500090929496989A9C9E9FA1A3A5A7A8AAACB9
:10026000AEAFB1B3B4B6B8B9BBBCBEBFC1C2C3C5F3
:10027000C6C7C9CACBCCCDCED0D1D2D2D3D4D5D695
:10028000D7D7D8D9D9DADADBDBDBDCDCDCDCDCDDC8
:10029000DDDDDDDCDCDCDCDCDBDBDBDADAD9D9D8AC
:1002A000D7D7D6D5D4D3D2D2D1D0CECDCCCBCAC944
:1002B000C7C6C5C3C2C1BFBEBCBBB9B8B6B4B3B173
:1002C000AFAEACAAA8A7A5A3A19F9E9C9A9896940E
:1002D00092908E8C8A89878583817F7D7B797775E3
:1002E00073716F6D6B6968666462605E5C5A5957C2
:1002F000555351504E4C4A4947454342403E3D3B81
:100300003A3836353332302F2D2C2A29282625230A
:1003100022FFAA7F554000010101010101010101F5
:1003200002020202020202020203030303030303A6
:100330000304040404040404050505050506060673
:100340000606070707070708080808090909090A30
:100350000A0A0B0B0B0C0C0C0D0D0D0E0E0E0F0FD5
:100360000F10101111111212131314141515161663
:100370001717181819191A1A1B1B1C1D1D1E1E1FD2
:100380002020212222232424252626272829292A21
:100390002B2C2D2D2E2F3031323233343536373849
:1003A000393A3B3C3D3E3F40414243444546474845
:1003B000494A4C4D4E4F50515354555658595A5B1B
:1003C0005D5E5F616264656668696B6C6D6F7072BB
:1003D000737577787A7B7D7E8082838587888A8C27
:1003E0008E8F91939596989A9C9EA0A2A3A5A7A95B
:1003F000ABADAFB1B3B5B7BABCBEC0C2C4C6C9CB52
:10040000CDCFD1D4D6D8DBDDDFE2E4E7E9EBEEF007
:10041000F3F5F8FAFDFF10034C00610070006C006A
:1004200061006300650000000E034B00650065007D
:10043000620069006F0000000403090409023B0028
:10044000020100A0FA0904000001030101000921D2
:10045000110100012244000705810308000109047D
:100460000100010300000009211101000122B60072
:10047000070582032000011201000200000008109D
:10048000CB471100010102000105010902A101850C
:10049000020901A100050919012908150025019586
:1004A00008750181020501093009311581257F9503
:1004B000027508810609381581257F950175088127
:1004C00006050C0A38021581257F950175088106FD
:1004D000C0C005010980A101850319012AB70015D3
:1004E0000126B700950175108100C0050C0901A116
:1004F00001850419012AA002150126A002950175A3
:10050000108100C005010906A1018506050719E053
:1005100029E71500250195087501810205071900D5
:1005200029EF1500250195F07501810205081901D3
:100530002905950575019102950175039101C00585
:10054000010906A101050719E029E7150025019514
:1005500008750181029501750881010507190029B7
:10056000FF150026FF009506750881000508190192
:100570002905150025019505750191029501750361
:100580009101C00011241FBECFEFDAE0DEBFCDBF66
:1005900011E0A0E0B1E0E4E1F3E502C005900D92C6
:1005A000A63DB107D9F723E0A6EDB1E001C01D9249
:1005B000AC37B207E1F70E94F2110C9434290C9485
:1005C00000008330B8F46830A8F4473098F450E065
:1005D00097E0699F400D511D1124FA0198E3899F0E
:1005E000E00DF11D1124EE0FFF1FE455FF4F859123
:1005F0009491089581E090E008950E94E1020895A9
:1006000081E008950E940003089581E008950E940A
:10061000000308950E940703089508950E940D03A2
:100620000895A6E0B0E0E7E1F3E00C94E027498309
:100630005A839E833091DD0189819A8131111AC0DC
:100640003E81332399F0222389F00E94A708182FB6
:10065000682F89819A810E94830869817A81812F1C
:100660000E94850F2696E3E00C94FC270E949508D3
:10067000182FF3CF0E94A70869817A81F1CFFC017E
:10068000262F4081518162817381848195810E94EE
:1006900011030895CF93DF93EC0161E00E943F03C3
:1006A000BE010E940203DF91CF910895CF93DF93A3
:1006B000EC0160E00E943F03BE010E940E03DF9147
:1006C000CF91089508950E9458070E9462032FEF6A
:1006D00084E39CE0215080409040E1F700C000009E
:1006E00008950E9463030E94862008950E94630378
:1006F0000E94972008950F931F93CF93DF938C014F
:1007000061E00E943F03EC01B8010E940A038111DD
:1007100006C080E0DF91CF911F910F910895B8013D
:10072000CE010E94DF1D8823A1F3B801CE010E94F3
:10073000751C882371F3B801CE010E94511D8823D6
:1007400041F3B801CE010E94D71B882311F3F801B1
:100750008581882361F0C330FCE7DF07E9F058F4B6
:10076000C115ECE7DE07A9F0C130DC47B9F0C801DC
:100770000E940503CFCFCB358CE7D807A9F0CC3545
:10078000ECE7DE0771F0CA35DC4789F70E94DD0C23
:10079000EECF0E947103BDCF0E94E50C0E9476034C
:1007A000B8CF0E94D30CE3CF0E94E10CE0CF0E94AF
:1007B000B81F0E94FE0308950E9402040E94BD1FFC
:1007C0000895089581E008950895CF93DF93D82F79
:1007D0000E94E203C82F882319F08D2F0E94E403A2
:1007E0008C2FDF91CF9108950895CF93C82F0E9449
:1007F000E1038C2F0E94E503CF91089580E00E94D1
:10080000F50308950E94281E0E94F5030895CF93D2
:100810000E94281EC82F8091D8018C1779F0C093B0
:10082000D8010E9447206093D9017093DA01809328
:10083000DB019093DC018C2F0E94F503CF9108958A
:10084000ADE0B0E0E6E2F4E00C94E1274887598798
:100850006A877B878C879D8791110E940B0C1F8272
:1008600086E0FE013896DE01119601900D928A9580
:10087000E1F78D8181110DC029813A814B815C8125
:100880006D817E818F810E943E0B2D96E2E00C945B
:10089000FD27CE0101960E944A038111EDCFF5CFCD
:1008A000FC012481213021F4808191810E94D908AA
:1008B0000895662329F00E9489120E945C1308950E
:1008C0000E94E312FACFCF93C82F8823B9F08CEFA0
:1008D0008C0F813AA8F46C2F80910401909105014E
:1008E0000E94BB1E882329F08C2F0E94CB0B0E94F4
:1008F000440C8C2F0E94C30B0E94440CCF9108958E
:1009000080E28C0F883048F4C77081E001C0880F06
:10091000CA95EAF70E94EE0BEFCFEBE5EC0FE33060
:1009200040F4F0E0E05AFE4F808190E00E945D1EAE
:10093000E5CFE8E5EC0FEB3150F4F0E0EE0FFF1FF0
:10094000E65DFE4F808191810E94821ED7CF83E3B6
:100950008C0F833198F661E08C2F0E945904CECF22
:10096000882381F19CEF980F913A28F40E94CB0BD9
:100970000E94440C089590E2980F983050F48770CC
:1009800091E001C0990F8A95EAF7892F0E94F40B34
:10099000EFCF9BE5980F933028F490E080E00E9421
:1009A0005D1E089598E5980F9B3128F490E080E053
:1009B0000E94821E089593E3980F933118F460E02B
:1009C0000E94590408951F93CF93DF93182FEB01D2
:1009D0000E946304209739F4812F0E94B004DF91B4
:1009E000CF911F9108958FE99FE00197F1F700C023
:1009F00000002197EFCF70E060E0893311F460E5EB
:100A000070E00E94E3040895882321F00E94EE0B19
:100A10000E94440C0895882321F00E94F40B0E9448
:100A2000440C0895B0E0A0E0E8E1F5E00C94DA278A
:100A30006C01D62FC72FFC011581068102950F701E
:100A40000E94E40BE82E8823E9F0E12E1123D1F077
:100A50008C2F807F803451F080E28D0F8830F8F049
:100A6000011104C08C2F807E8032C9F08091280350
:100A700082FF15C082E00E94A70C0E94E40B91E067
:100A8000E82EE926BC2EB2949FE0B922FBE0FB15CC
:100A9000B8F1EB2DF0E0EA5CF64D0C949A27E12CCE
:100AA000F1CF0C2F0F70C07F11F00295007F112342
:100AB00099F0002359F080E28D0F883010F0D111A9
:100AC00007C0802F0E94EE0B0E94440C8D2F5AC04D
:100AD000802F0E94FE0BF8CF8D2F0E94B0040023C0
:100AE00079F080E28D0F883010F0D11104C0802F92
:100AF0000E94F40B03C0802F0E94040C0E94440C3F
:100B0000EB2DE850FF0B349720F40E94281E0E9422
:100B1000F503EE2089F00E94E00B80FD0DC0F60188
:100B200015820E94DA0B0E94E107C6010E941F078E
:100B30000E94DA0B0E94F107CDB7DEB7E9E00C9412
:100B4000F6272C2F2F70F22EC07FC03219F0F294AE
:100B500080EFF822DD2341F0D130D1F1112309F4E7
:100B600044C00023F1F0B2CF8091280382FD15C06C
:100B7000112359F0FF2029F08F2D0E94EE0B0E94C7
:100B8000440C80E00E946304BBCF80E00E94B0046C
:100B9000FF2009F4B5CF8F2DABCF112369F00111E0
:100BA00004C08F2D0E940405ABCF013009F0A8CFFF
:100BB0008F2D0E94220CA4CF0111A2CF8F2D0E9455
:100BC0000B058F2D0E942E0C8F2D0E94120C98CF9A
:100BD000112321F0063008F093CFE3CF053008F061
:100BE0008FCF8F2D0E940B058BCF0023D1F3D933EC
:100BF00049F43FEF87EE93E0315080409040E1F7B9
:100C000000C000008D2F0E94B0047ACF8C2F8695F3
:100C10008695837069F0813009F072CF8D2F9C2FFB
:100C20009370111102C080E090E00E94821E68CF94
:100C30008D2F9C2F9370111102C080E090E00E94D4
:100C40005D1E5ECF612F8D2F0E94590459CF8C2FCE
:100C50008370A1F5111154CF4D2F429546954770E1
:100C6000440F440F2D2F2F7030E0042E02C0220FAE
:100C7000331F0A94E2F790E080E0D4FF09C08FE0D0
:100C800090E002C0880F991F4A95E2F780959095F1
:100C9000C695C695C370822B932BC23049F058F489
:100CA000C13019F00E94B1072BCF0E94A80728CFAE
:100CB0000E94BA0725CF0E94A50722CF869511234F
:100CC00011F08C2F8170882309F41ACF4D2F429593
:100CD00046954770440F440F2D2F2F7030E0042E9F
:100CE00002C0220F331F0A94E2F790E080E0D4FFA5
:100CF00009C08FE090E002C0880F991F4A95E2F783
:100D000080959095C695C695C370822B932BC23063
:100D100049F058F4C13019F00E941C08F1CE0E942D
:100D20001308EECE0E942508EBCE0E94C907E8CE3C
:100D3000CF70112329F08C2F0E94E1078D2F32CF25
:100D40008D2F0E940B058C2F0E94F107D9CED23F28
:100D500041F160F4D03FB9F0D13F81F0112309F4A3
:100D600046C00111B3CE8C2F8F711FC0D33F01F14C
:100D7000D43FA1F78091280382FD24C08C2F8F716E
:100D8000112311F312C0112341F0053008F0B8CE41
:100D90008C2F8F710E940308B3CE063008F0B0CEBE
:100DA000F7CF8C2F8F711111CFCF0E94E107A8CE02
:100DB000112329F08C2F8F710E94D507A1CE0E949C
:100DC000D0079ECE112349F0CF718C2F0E94E107EE
:100DD00063E08C2F0E94890C93CE81E00E94A70CC7
:100DE000023008F48DCE82E00E94A70C89CE002349
:100DF00059F0D93309F006CFEFEFF7EE23E0E150D9
:100E0000F0402040E1F7FCCE8C2F8F719DCF0F93E7
:100E10001F93CF93DF93EC01688179818D810E94CC
:100E2000E4088C010E942E080E94A407B801CE019C
:100E30000E941205DF91CF911F910F910895CF93DA
:100E4000DF93EC018C81882399F0CE010E947B0313
:100E5000811111C00E94E40B882351F08D818823F9
:100E600039F08091280382FF03C082E00E94A70C22
:100E7000DF91CF910895CE010E940707CE010E9415
:100E80005603F6CF90E080E00E945D1E90E080E087
:100E90000E94821E0E940B0C0E94440C0E94781338
:100EA0000E945C1308950E94D30B0E94420708958C
:100EB0000E94FB0B0E945307089592959F709630F5
:100EC00091F058F4925F9F70923058F4803F19F07F
:100ED00030F4883E30F481E008959A5FF4CF843F87
:100EE000D1F380E00895883EB0F3813FD1F7F3CF8E
:100EF000FC012481222339F0808191810E94D9084C
:100F00000E945D07089580E00895A6E0B0E0EBE858
:100F1000F7E00C94E1272696E2E00C94FD27A7E089
:100F2000B0E0E5E9F7E00C94E1272796E2E00C94C5
:100F3000FD2708950E94990708950E949A079093AB
:100F4000FD018093FC01089508950E949D07089576
:100F50002091FC013091FD01822B932B0E949D0773
:100F600008952091FC013091FD01822393230E947A
:100F70009D0708952091FC013091FD018227932760
:100F80000E949D0708950E94990708950E94C30733
:100F900008950E94C6079093FB018093FA0108957B
:100FA00090E080E00E94C907089521E030E0A901A7
:100FB00002C0440F551F8A95E2F7CA010E94C90773
:100FC000089521E030E002C0220F331F8A95E2F736
:100FD0008091FA019091FB01822B932B0E94C9070B
:100FE000089521E030E002C0220F331F8A95E2F716
:100FF000209530958091FA019091FB0182239323F3
:101000000E94C907089521E030E002C0220F331F7B
:101010008A95E2F78091FA019091FB01822793274C
:101020000E94C90708952091FA013091FB01822B9B
:10103000932B0E94C90708952091FA013091FB017A
:10104000822393230E94C90708952091FA013091C9
:10105000FB01822793270E94C90708950895262F30
:10106000277091E001C0990F2A95EAF723E0769561
:1010700067952A95E1F7660F771F660F771FFA01CC
:10108000E60FF71F50E040E0682F70E08191DF012C
:1010900011979B01042E02C0369527950A94E2F71A
:1010A000217021952827292328272C934F5F5F4FF4
:1010B0004430510559F70895A82FA77023E096955D
:1010C00087952A95E1F7880F991F880F991FFB01D3
:1010D000E80FF91F50E040E080E0219130E00A2E57
:1010E00002C0369527950A94E2F721703327042E23
:1010F00001C0220F0A94EAF7822B4F5F5F4F443002
:10110000510559F70895262F983070F4873060F410
:10111000682F70E087E0989F600D711D11244EEDDF
:1011200051E0822F0E942F080895292F983068F4EB
:10113000873058F490E06EED71E037E0239F800D2A
:10114000911D11240E945C08089580E00895B0E08C
:10115000A0E0EDEAF8E00C94DA277C010091FA01B6
:101160001091FB018091FC019091FD01082B192B3E
:10117000CFE0D0E0CC24C394D12CBC2EC6010C2EE1
:1011800002C0880F991F0A94E2F780239123892BCC
:1011900049F4219790F7B12C8B2DCDB7DEB7E9E05C
:1011A0000C94F627B7018C2F0E94910F019789F3B9
:1011B000F3CFCF93DF93EC010E94A708BE010E94FA
:1011C000910FDF91CF9108951F93CF93DF93EB01A0
:1011D0009091DD01992339F0CB010E94D908DF916C
:1011E000CF911F910895882369F0CB010E94A70831
:1011F000182F682FCE010E948308BE01812F0E9404
:10120000910FEDCFCB010E949508182FF6CF1F93B9
:10121000CF93DF93C091FE0117E08091FF018C1303
:1012200004C0DF91CF911F910895D0E01C9FF00181
:101230001D9FF00D1124E050FE4F2081318142812D
:1012400053816481758186810E948F072196C770C2
:10125000E4CF209138023091390240913A02509106
:101260003B0260913C0270913D0280913E020E94DF
:101270008F070895CF93DF9380913E02807F09F01E
:101280004DC080913D02882309F448C0E091FE01E1
:101290005091FF01C0913902D091380260913A0219
:1012A00070913B0247E05E17C9F18E2F90E0E49FFA
:1012B000F0011124E050FE4F2481222391F1489F38
:1012C000F001499FF00D1124DF01A050BE4F11968F
:1012D0002C9111972C1325C02C912D1322C01596FB
:1012E0002C91159721111DC012962D913C91261B12
:1012F000370B283C3105A8F480913E028F70806145
:1013000080933E02EA5FFD4F80818F708061808311
:1013100088E392E00E941F070E940709DF91CF91A6
:101320000895FC013196E770BECF482F2091FE0151
:101330009091FF0157E0291302C080E0089530E04A
:10134000529FF001539FF00D1124E050FE4F818118
:10135000681306C08081481303C085818111EECFD8
:101360002F5F3F4F2770E7CFA4E1B0E0EAEBF9E051
:101370000C94D7278C0186E0F801DE011F960190BE
:101380000D928A95E1F7F8018481E58098E3A92E12
:1013900092E0B92E90913C0291111FC08823D1F0A8
:1013A000EE20A9F0C8010E947807F82E882379F072
:1013B00087E0F801D50101900D928A95E1F7C5010A
:1013C0000E9450040E943A090E9429095FC0C80186
:1013D0000E941F07FF24F39459C0C080D1808280EF
:1013E0009380F0903D0220913A0230913B02A4019B
:1013F000421B530BFF2009F4F9C0483C510508F08B
:10140000A7C0882309F442C09091390280913E021E
:10141000282F207F09F05CC09D1116C090913802E2
:10142000C91212C0E1104EC08F70806180933E02DD
:101430000E94290988E392E00E941F0780913E02E2
:10144000F8018683F12C22C0E1103CC06D2D8C2D5B
:101450000E9495096D2D8C2D0E949509E82E811111
:10146000F1CFCF86D88A8F8598890E94D908292FF5
:1014700022952F70243078F49F702230A8F09923A1
:10148000B9F0F8019681907F99F4FE2C8F2D649627
:10149000ECE00C94F3272A5F2F70223068F0C8012B
:1014A0000E941F07EF2CF1CF992311F0882369F3D5
:1014B000805E883050F3F3CF803F38F3815F833014
:1014C00070F7E3CF80913E02816080933E02BACFF5
:1014D0009D1113C090913802C9120FC0E1100DC0C8
:1014E0008683C8010E941F0787E0F801A8E3B2E0E5
:1014F00001900D928A95E1F767CFC8010E947807A5
:10150000882309F464CFEE2009F461CF80913E0274
:10151000803288F02091380230913902398728874B
:101520009B868A8690913C029C871D868E87CE0181
:1015300008960E941F0787E0F801A8E3B2E0019037
:101540000D928A95E1F70E943A090E94290942CF3B
:1015500090913E02292F207FA1F4682D9A8A898AD2
:10156000A6017A899E2D0E94850788E392E00E9459
:101570001F0787E0F50111928A95E9F70E94290972
:1015800061CF882309F482CF809139028D1110C078
:1015900080913802C8120CC0E1100AC09683C801BD
:1015A0000E941F0787E0F50111928A95E9F76ECF37
:1015B000C8010E947807882309F409CFEE2009F4B6
:1015C00006CF80913E02803208F4B5CF20913802D8
:1015D000309139023A8329839C828B8290913C021C
:1015E0009D831E828F83CE010196A3CF483C510577
:1015F000B8F5882309F4EECEFE2CEE2009F4E7CEF0
:10160000809139028D111EC080913802C8121AC013
:1016100080913E0280FD0DC0982F907F51F086830F
:10162000903F09F45ECF982F907F905F8F70892B49
:1016300057CF87E0F801A8E3B2E001900D928A95B8
:10164000E1F724CFC8010E947807811174CF8091FF
:101650003E02816080933E02C8010E941F0716CFA0
:10166000682D9A8A898AA6017A899E2D0E9485070B
:1016700087E0F50111928A95E9F7A6CEAEE0B0E0D9
:10168000E4E4FBE00C94E027288739874A875B87EE
:101690006C877D878E87CE0108960E94B4098823C7
:1016A000B1F06C85662341F0288539854A855B85D4
:1016B0007D858E850E948F0717E08091FE019091B5
:1016C000FF0189133DC02E96E3E00C94FC2787E0D0
:1016D000FE013896DE01119601900D928A95E1F790
:1016E0008C85882349F32091FF0130E0C9010196E0
:1016F000877099274091FE014817190699F097E0E5
:10170000929FD001939FB00D1124A050BE4FFE01B7
:10171000319601900D929A95E1F78093FF010E9416
:101720000709CACF0E9458071092FF011092FE01CC
:1017300087E0E8E3F2E0DF011D928A95E9F7BCCF8C
:10174000819FC001112480509E4F0E94B4098823BC
:1017500009F4B9CFE091FE011E9FF0011124E05081
:10176000FE4F208131814281538164817581868160
:101770000E948F078091FE0190E001968770992763
:101780008093FE019ACF682F80910401909105010A
:101790000E943B1F0895682F8091040190910501DC
:1017A0000E94491F089580910401909105010E94B3
:1017B000571F089580915F028695869586950895B6
:1017C00080915F028770089590915F02977081E029
:1017D00009F480E008958091830208959091830236
:1017E000892B80938302089580959091830298239A
:1017F000909383020895109283020895909182023B
:10180000892B80938202089580959091820298237B
:1018100090938202089510928202089508950E9482
:101820000E0C089590916002292F282331F08095A5
:101830008923809360020E940F0C089508950E94EE
:101840001E0C089590916102292F2823281729F052
:10185000982B909361020E941F0C08959091610251
:10186000292F282331F080958923809361020E94DB
:101870001F0C089580916102882329F01092610263
:1018800080E00E941F0C0895CF93DF93E091040144
:10189000F0910501809183028083E0910401F09131
:1018A0000501808190918202892B80839091610251
:1018B000992381F0E0910401F09105018081892B49
:1018C000808380910401909105010E94A71E8111DF
:1018D0000E943A0CC0910401D091050140E250E011
:1018E0006FE372E0CE010E94A728892B59F080E2B5
:1018F000FE01AFE3B2E001900D928A95E1F7CE01CF
:101900000E94351EDF91CF91089508950E94850CA5
:1019100008959091280392FF11C098E0899F90014B
:101920001124622B60935F020E94E10780915F02A5
:101930008695869586950E94860C08950E94E107FB
:10194000089510925F0280E00E94860C08959091A5
:101950005F028095892380935F02282F277069F4A6
:10196000891759F09091280392FF07C086958695B4
:1019700086950E94F1070E94A10C0895909128037A
:1019800092FB222720F9281769F080FB92F99093A7
:10199000280380912703909128030E94060D82E07E
:1019A0000E94A70C08958091280382FB882780F964
:1019B00091E089270E94BE0C089581E00E94BE0C30
:1019C000089580E00E94BE0C08956FEF7FEF90E0D5
:1019D00080E00E94FF28089590E080E00E94CB28DC
:1019E00021E0863E9E4F09F020E0822F089582E09C
:1019F00090E00E94BD28089583E090E00E94BD28F9
:101A0000089584E090E00E94CB280895BC0184E012
:101A100090E00E94FF280895AB01BC018FE090E0A8
:101A20000E94F3280895AB01BC0183E190E00E947D
:101A3000F328089560E070E0CB010E94130D089533
:101A400060E070E0CB010E940C0D0E941A0D089519
:101A5000A8E0B0E0EEE2FDE00C94E12766EE7EEF58
:101A600090E080E00E94FF2860E082E090E00E9429
:101A7000E12860E083E090E00E94E1281092FD01FF
:101A80001092FC0160E074E184E090E00E94FF2885
:101A900060E086E090E00E94E1286FEF87E090E050
:101AA0000E94E12840E050E0BA0188E090E00E9406
:101AB000F32860E084E290E00E94E12860E087E1A2
:101AC00090E00E94E12860E08CE090E00E94E12834
:101AD00060E08DE090E00E94E12819821A821B826A
:101AE0001C821D821E821F82188648E050E068E139
:101AF00070E0CE0101960E94D12840E050E0BA018A
:101B000080E290E00E94F3280E94200D2896E2E0F7
:101B10000C94FD270E94280D0895682F8EE090E018
:101B20000E94E1280895A6E0B0E0E9E9FDE00C9408
:101B3000DF270E943B208C018091840290918502D6
:101B40008017910781F019821A820E943B20682F2A
:101B500049815A81792F80E090E00E9420041093FF
:101B60008502009384022696E4E00C94FB270E94F1
:101B70004720609392027093930280939402909313
:101B8000950260938E0270938F02809390029093DF
:101B900091020895089508950E94CA0D0895089528
:101BA0000E94CF0D089587E890E10E94FF110E94E6
:101BB000CB0D0E94CC0D089581E008950E94DC0DAC
:101BC00008950E94DC0D0895089508950E94E40D83
:101BD0000E94E50D08950E948A100E94F403089562
:101BE0000E9432200E9455110E94EB0D0E94DB1AC8
:101BF0000E94D00D0895A6E0B0E0E1E0FEE00C9474
:101C0000D8270E94DE0D81110CC00E94930D0E9406
:101C10001E1B0E949A130E9407042696EBE00C9468
:101C2000F4270E946B1186E8A82E82E0B82E750179
:101C300010E0F70101917F01812F0E94B0101F5F1A
:101C4000183009F441C00817A1F38091960281FD74
:101C50000E94B6100E94E10DC82E10E099249394C2
:101C6000812F0E94B010082FF50181915F010817A4
:101C700029F1F12CEE24E394D02ED8268D2D8E213F
:101C8000A9F0CC2099F0F9821A830E943B209C8312
:101C90008B839D8291E0802F8E2109F490E0498111
:101CA0005A816B817C818D810E942004F394EE0C1B
:101CB000F7E0FF12E3CFF501319700831F5F183083
:101CC00079F60E94B70DA3CF0813BFCF9ECF1F9305
:101CD000CF93DF930E94960FEC01C11580E5D807E2
:101CE000F0F5C11580E4D80708F09CC0C03ED105CE
:101CF00020F5CD3CD10508F082C0C83AD10578F472
:101D0000C53AD10508F073C0C130D10519F120974B
:101D100009F1C430D105F0F4D0E0C0E01BC0C33CF1
:101D2000D105D0F7C85AD0E0CC0FDD1FCD59DE4F1A
:101D30000990D881C02DD4640DC0C11580E2D807A8
:101D400008F0D1C0C11581E0D80708F05AC0C83EDC
:101D5000D10510F7CE01DF91CF911F910895C036C4
:101D600082E5D80718F5C03482E5D80708F06BC0C3
:101D7000C03282E5D80708F05FC0C11582E5D807F8
:101D800008F497C02C2F2695269580E2289F900175
:101D900011248C2F8370C1E0D0E002C0CC0FDD1F76
:101DA0008A95E2F7C22BD32BDD68D4CFC03A82E507
:101DB000D80760F4C03882E5D80708F459C0CF715D
:101DC000D0E0DC2FCC27C46FD06AC4CFC03C82E502
:101DD000D80708F462C0C03E82E5D80708F09CCF5F
:101DE000DC2FCC27CC27DF71C06FD06AB3CFC55AA8
:101DF000D0E0C756DE4FC881D0E0D064ABCFD0650D
:101E0000A9CF8D2F0E943810182FCE0199270E943C
:101E1000960FC12FD0E0DC2FCC27CC27DF71C82B49
:101E2000D92B98CFCE0199270E94960FCC27DF702F
:101E3000C82BD92BD06A8ECFCF71D0E0DC2FCC2726
:101E4000C16FD06A87CF2C2F26952695277080E208
:101E5000289F900111248C2F8370C1E0D0E002C034
:101E6000CC0FDD1F8A95E2F7C22BD32BDC6872CF33
:101E70002C2F26952695277080E2289F900111240B
:101E80008C2F8370C1E0D0E002C0CC0FDD1F8A959B
:101E9000E2F7C22BD32BDA685DCF8C2F8F710E94B3
:101EA0003810C82FD0E0DC2FCC27CC27DF71D062D0
:101EB00051CF8C2F8F710E94381055E0D695C79561
:101EC0005A95E1F7CF70D0E0DC2FCC27282F30E0F7
:101ED00084FF05C044E0220F331F4A95E1F7C22B6F
:101EE000D32BD06937CF8D2F8F710E943810182FC8
:101EF000CE0199270E94960FC12FD0E0DC2FCC276E
:101F0000CC27DF71C82BD92BD2CF462F783030F4B5
:101F1000673020F4672F0E94FD02089590E080E072
:101F200008950E94850F0E94670E089582389105DA
:101F3000B9F1B0F48133910509F47DC048F48932D8
:101F4000910509F46DC08A32910509F47BC00895AA
:101F50008533910509F45FC08933910509F108952E
:101F6000833E9105D9F138F4803E910529F1823EF6
:101F7000910579F10895863E9105D9F1873E910545
:101F800009F43EC0843E910541F52091280321FFCC
:101F900024C08091270384FD19C087EE90E0089546
:101FA00020912703237009F05AC02091280323FFB2
:101FB00014C089E290E008952091270320FD38C0E5
:101FC0003091280330FF09C024FF43C090E080E037
:101FD00008952091270322FDF7CF0895209127032C
:101FE00022FD3AC03091280330FD39C024FFF5CFDF
:101FF000EDCF2091270323FFF0CF24FDE7CFCDCFF6
:102000002091270323FD2EC03091280331FFEECF0E
:1020100084EE90E008952091270325FFDECFC9CFFD
:102020002091270325FD21C02091280323FFD5CF30
:1020300089E390E0D2CF2091270326FFCECF8AE21A
:1020400090E008952091270326FFC7CF81E390E019
:10205000089583EE90E0089582EE90E0089580EE7A
:1020600090E0089586EE90E0089585E390E008956D
:102070009091270392FF10C041E0282F2471243053
:1020800009F040E031E0282F2871283009F030E0D5
:10209000431711F02CE0822793FF10C041E0282F56
:1020A0002471243109F040E031E0282F28712831D3
:1020B00009F030E0431711F02CE08227309128031B
:1020C00030FF10C051E0282F2171213009F050E07D
:1020D00041E0282F2871283009F040E0541711F012
:1020E00029E0822731FF10C041E0282F21712131E2
:1020F00009F040E031E0282F2871283109F030E064
:10210000431711F029E0822794FD877E089580E02F
:10211000089508950E94EC0C811102C00E948A0D5E
:102120000E94F70C809396020E94010D9093280361
:10213000809327030E9489100E94FC0C90E00E946B
:10214000A5078091FA019091FB010E94C6070895AE
:1021500008950E94A810089508950E94AC10089553
:10216000E82FF0E0EF5CFC4F80810895089580EA4D
:102170008A95F1F7089500C008950E94B710089558
:10218000F894E82FE295EF70F0E031A1282F2F703E
:1021900081E090E001C0880F2A95EAF7982F90958A
:1021A000932391A392A1892B82A3789408950F93EE
:1021B0001F93CF93DF93C3EAD1E089918F3F11F052
:1021C0000E94C01081E0CB3AD807B9F7CCE9D1E042
:1021D00003EA11E089918F3F11F00E94C0100C17A3
:1021E0001D07C1F7DF91CF911F910F910895B0E0C6
:1021F000A0E0EDEFF0E10C94DB27EC01D62E062FEA
:1022000010E0C8018D559E4F7C01FC0180818F3FFD
:1022100009F444C0F894E82FE295EF70F0E091A142
:102220008F7021E030E001C0220F8A95EAF7892FF4
:10223000822B81A382A12095282322A378940E9437
:10224000BB10ECE9F1E031E0C12C21912F3F59F1B5
:10225000A22FA295AF70B0E090968C9190E02F7075
:1022600002C0959587952A95E2F780FD1CC0832FC3
:10227000C82A330F81E0E33AF80739F7F701808184
:102280008F3F11F00E94C01061E0C11001C060E0FA
:102290008D2D0E94BD10C00FD11FC882CDB7DEB7F3
:1022A000E8E00C94F72780E0E3CF0E94D71088E0A5
:1022B000E1E3F3E0DF01982F1D929A95E9F7E9E257
:1022C000F3E0DF011D928A95E9F788E00E94A611EC
:1022D0000E94A9100895A8E0B0E0E1E7F1E10C94B4
:1022E000DE278E010F5F1F4F88E0F80111928A955B
:1022F000E9F7F12C6F2DC8010E94F710F394F8E074
:10230000FF12F8CF48E050E0B80189E293E00E9464
:10231000A72821E0009709F420E0892B41F088E00C
:10232000F801A9E2B3E001900D928A95E1F748E047
:1023300061E373E089E293E00E94A711182F0E94E5
:10234000AD10812F2896E5E00C94FA270895CF92DE
:10235000DF92EF92FF920F931F93CF936C017B015B
:10236000042F222349F081E0809399020E943B20B0
:102370009093980280939702C0919902C1110AC06C
:10238000C0E08C2FCF911F910F91FF90EF90DF90C5
:10239000CF90089580919702909198020E945320C7
:1023A000059770F310E0A801B601C7010E94A728A5
:1023B000892B41F0A801B601C7010E94B4281092F0
:1023C0009902DFCFC0E0FBCF0E940C220E94F00DEB
:1023D0000E94192208950E941E220E94FB0D0E9455
:1023E000382208950E94D41F0E94F2210E94D30D2A
:1023F0000E94E4110E94EB110E94E60DFBCF909326
:10240000D7018093D6010895282F35EB2303C0010F
:10241000112497FF04C080589109892F089580588E
:102420009F4FFBCF8091A00280FF0DC060910B01F8
:1024300070E0660F771F6038710570F561157105E2
:1024400069F1862F089581FF07C060910B0184E038
:10245000689FB0011124EFCF60910B0182FD0AC08B
:1024600080919F028823A9F020910A0160910B01BD
:10247000821710F088E0ECCF869FC001112433E072
:10248000880F991F3A95E1F7622F70E00E94642748
:10249000D2CF68E070E0D5CF8FE7089581E008954E
:1024A0008091A00280FF0CC06091070170E07595DB
:1024B0006795759567956115710549F1862F0895A2
:1024C00081FF06C06091070170E075956795F3CFB5
:1024D0006091070182FD0BC090919E029923A1F0AB
:1024E0006091060180910701961738F0682F70E01F
:1024F0006038710500F38FE70895899FC0011124AA
:1025000070E00E946427F4CF61E070E0D7CF81E0F3
:1025100008958D3C31F40E94121281958093A4029B
:1025200008958E3C19F40E941212F8CF8F3C31F4BA
:102530000E94121281958093A3020895803D19F4A0
:102540000E941212F8CF893D29F40E945012809304
:10255000A50208958A3D21F40E9450128195F7CF7B
:102560008B3D31F40E94501281958093A60208950C
:102570008C3D19F40E945012F8CF9FE2980F9830CA
:1025800070F4815D990B21E030E001C0220F8A9543
:10259000EAF78091A202822B8093A20208958D3DDA
:1025A00031F48091A00281608093A00208958E3D55
:1025B00021F48091A0028260F7CF8F3DB9F780911E
:1025C000A0028460F1CF4091A3028D3C59F4809128
:1025D000A40287FF0DC01092A40241110BC01092FB
:1025E0009F0208C08E3C81F48091A40218169CF3CF
:1025F000442381F08091A5029091A602892B09F0D5
:102600005AC010929E0208958F3C49F447FFF0CFC4
:102610001092A3028091A4028111ECCFE0CF803D03
:1026200019F41416ACF3E4CF9091A502893D29F476
:102630001916F4F61092A502DBCF8A3D19F497FF24
:10264000D7CFF8CF9091A6028B3D29F497FFD0CF3A
:102650001092A602CDCF8C3D19F41916CCF3C8CF39
:102660009FE2980F983090F4815D990B21E030E063
:10267000B90102C0660F771F8A95E2F7CB018095FA
:102680009091A20289238093A202B2CF8D3D31F4B2
:102690008091A0028E7F8093A002AACF8E3D21F46C
:1026A0008091A0028D7FF7CF8F3D09F0A1CF80915F
:1026B000A0028B7FF0CF08950E943B209C01909157
:1026C000A3028091A402982B21F030939D022093C5
:1026D0009C029091A5028091A602982B21F0309344
:1026E0009B0220939A0281EA92E00E944F1E089575
:1026F00086E0E1EAF2E0DF011D928A95E9F71092A7
:102700009F0210929E021092A0020895FC01828105
:1027100081110EC0838181110BC08481811108C099
:1027200091E08581811101C090E0892F8170089529
:1027300081E0FCCFA6E0B0E0E0EAF3E10C94E02712
:1027400086E0E1EAF2E0DE01119601900D928A95B1
:10275000E1F71092A3021092A4021092A502109227
:10276000A6028B819C81892B89F080919C0290919B
:102770009D020E945320AC0190919F029923C9F1C0
:1027800080910C018417150608F440C08D819E814C
:10279000892B91F080919A0290919B020E94532084
:1027A000AC0190919E02992309F46AC080910801BE
:1027B0008417150608F472C0BE016F5F7F4F81EA6F
:1027C00092E00E94691F811105C081EA92E00E9497
:1027D000861381110E945C1386E0FE013196A1EA06
:1027E000B2E001900D928A95E1F72696E3E00C9411
:1027F000FC2720910D018AE0289F900111242417C5
:10280000350720F69F5F90939F0202C09F3FD1F74C
:102810001B81112359F00E9412129FEF11160CF424
:1028200091E0899F802D11248093A3021C811123A4
:1028300059F00E9412129FEF11160CF491E0899F3B
:10284000802D11248093A4028091A302882309F48F
:102850009DCF1091A402112309F498CF0E94041275
:10286000882351F08093A302812F0E9404128823B1
:1028700029F08093A4028ACF81E0F4CF81E0F9CFE0
:10288000209109018AE0289F90011124241735071F
:1028900008F092CF9F5F90939E0202C09F3FD1F7B6
:1028A0001D81112359F00E9450129FEF11160CF454
:1028B00091E0899F802D11248093A5021E81112310
:1028C00059F00E9450129FEF11160CF491E0899F6D
:1028D000802D11248093A6028091A502882309F4FB
:1028E0006BCF1091A602112309F466CF0E94041247
:1028F000882351F08093A502812F0E94041288231F
:1029000029F08093A60258CF81E0F4CF81E0F9CF7F
:10291000EF92FF920F931F93CF93DF93EB01E82F7A
:10292000D1110EC0442321F0F0E0EA5EFC4FE491A7
:102930006E2F7E2F8E2FCDB7DEB7E6E00C94F927F1
:102940000D2F10E0282F30E0442329F02A5E3C4F61
:10295000F901249130E0F6E0CF9FC0011124EFEFA0
:10296000F0E0BF010E945027AB018C2F90E0880F50
:10297000991FA5E5A49FB001A59F700D1124861B8A
:10298000970B982F990F980FBF01601B710B629FD7
:10299000D001639FB00D729FB00D11248B2F9D9FAE
:1029A000B0011124672F7727EF01C61BD70BBE019B
:1029B000629FE001639FD00D729FD00D11247F01B3
:1029C000E91AF108E09EB001E19E700DF09E700DD5
:1029D0001124672F7727E61BF70BE29F8001E39F07
:1029E000100DF29F100D1124E12F722F423051056E
:1029F00099F048F44115510569F04130510581F0D5
:102A0000EB2F8D2F07C04430510569F080F0463020
:102A10005105B1F76E2F8FCFE22F7B2F812FFACF89
:102A2000E22F7D2FF7CFEB2F822F712FF3CF7B2F4C
:102A3000822FED2FEFCF41E00E9488140895089572
:102A40000E941B150895CF93DF93762FE901682F1D
:102A5000842F0E942015798368838A83DF91CF9128
:102A6000089580913903982F9E7F29F481708260A8
:102A70008093390308958635E8F381708465F8CF33
:102A8000B0E0A0E0E6E4F5E10C94DB2788E090E01C
:102A90000E94C5286B017C0184E290E00E94BD2861
:102AA000282F30E040E050E060E070E080E090E00F
:102AB00000E20E940828B22FA32FF42FE52FD62F73
:102AC000C72F97018601BC29A12BFE295E2F532B0E
:102AD0002B2F3A2F4F2F6D2F7C2FCDB7DEB7E8E08D
:102AE0000C94F727B0E0A0E0E8E7F5E10C94D727D5
:102AF00049015A016B017C010E9431158401A40136
:102B00006A2D7B2D88E090E00E94F32894014A2DE5
:102B10005B2DB601C70100E20E942328622F84E2E8
:102B200090E00E94E128CDB7DEB7ECE00C94F327EB
:102B3000E9E3F3E083E0808311828FEF8283838374
:102B40001482758123E030E04FEF5FEF60E0868113
:102B500097810E94721508958091390380FF02C009
:102B60008695089580E0089590913D03933018F480
:102B70009F5F90933D03882391F02091390330911A
:102B80003A0340913B0350913C0360913D037091A7
:102B90003E0380913F03909140030E947215089577
:102BA00081E00E94B415089590913D03992319F096
:102BB000915090933D03882391F0209139033091F7
:102BC0003A0340913B0350913C0360913D03709167
:102BD0003E0380913F03909140030E947215089537
:102BE00081E00E94D415089570E00E94491C089568
:102BF000609112018091390380FF0BC08091110117
:102C000023E0829FC00111248F5B9C4F0E94F4152A
:102C10000895809113019091140123E0829FF001A7
:102C20001124EF5BFC4F891748F711821082128242
:102C30008F5F3396F8CF9091390390FF0EC090913B
:102C400013012091140133E0939FF0011124EF5BF5
:102C5000FC4F921718F00E94F81508958183608345
:102C600042839F5F3396F5CFA3E0B0E0EAE3F6E15D
:102C70000C94E1279091390390FF0AC09E012F5FC9
:102C80003F4F0E9423154B8169818A810E941B1648
:102C90002396E2E00C94FD27CF93DF93EC01EC81C7
:102CA000F0E0EF5EFD4F4491E9E3F3E06281818162
:102CB0000E9434168C818F5F8C83DF91CF910895B1
:102CC000CF93DF93EC01E9E3F3E0438162818C81F0
:102CD0000E9434168C818F5F8C83DF91CF91089591
:102CE000A3E0B0E0E6E7F6E10C94DF278C018091E9
:102CF000A70281110AC09E012F5F3F4F4FEF6FEF78
:102D00000E9423158A818093A702F80164816130B3
:102D100069F08091A70240E0662361F040E06230F4
:102D200011F44091A70280E060E004C06091A70226
:102D300040E080E00E941B16F801848190E001963B
:102D400063E070E00E94642784832396E4E00C949F
:102D5000FB27A3E0B0E0EFEAF6E10C94DA27082FB6
:102D6000D62EF42EC22E9091390390FF2EC0E92F5B
:102D7000E695AE2FB0E0A555BE4F8C918093F7023B
:102D80009E7F923031F59E012F5F3F4F802F0E9432
:102D900023154B8169818A810E941B1600933A0397
:102DA000D0923B03F0923C03CC2079F02091390380
:102DB00060913D0370913E03302F4D2D5F2D80912A
:102DC0003F03909140030E9472152396E9E00C9412
:102DD000F627823019F4F0903C03E0CF863019F4E6
:102DE00000913A03DBCF8930D9F38931B9F6E95143
:102DF0006E2F6170B62EE695F0E0EF5EFC4F1491F9
:102E0000E12C60911501E61618F00E94F815C6CF66
:102E1000E19EC001112470E00E945027802FB11064
:102E200014C0860F20911301622F6E0D7727771F34
:102E30009B01220F331F260F371F2F5B3C4F4F2D57
:102E40006D2D0E942315E394DCCF861BEBCFE9E3C5
:102E5000F3E09181282F4381628188E0890F0E94ED
:102E6000A916089581E00E9427170895E9E3F3E089
:102E70009181282F4381628188EF890F0E94A916D2
:102E8000089581E00E9436170895E9E3F3E0628136
:102E900021E1620F08F46FEF282F438181810E94A6
:102EA000A916089581E00E9445170895E9E3F3E02B
:102EB000628121E1621B08F460E0282F4381818157
:102EC0000E94A916089581E00E9456170895E9E32B
:102ED000F3E0438121E1420F08F44FEF282F628194
:102EE00081810E94A916089581E00E9467170895C4
:102EF000E9E3F3E0438121E1421B08F440E0282F9D
:102F0000628181810E94A916089581E00E9478174C
:102F1000089520E00E94A9160895EF92FF921F9352
:102F2000CF93DF93EC0110E0EE24EA94F12C609152
:102F30001501161770F00E94F8159A818C8190FF88
:102F400027C08F5F8C83DF91CF911F91FF90EF900F
:102F5000089520911301422F410F5527551FCA0193
:102F60009A01220F331F280F391F2F5B3C4F70E04F
:102F7000C7010E946427962F8C8140913C03609189
:102F80003B03199F800D11240E9423151F5FCFCF93
:102F90008150D8CFB0E0A0E0E0EDF7E10C94D92764
:102FA000FC0182810FEF80FF01E010E04EE0A42ED3
:102FB00080911501181798F00E94F8158091A902C8
:102FC000013009F04FC0811102C08091150181507C
:102FD0008093A902CDB7DEB7EAE00C94F527C09143
:102FE0001301C12ED12CCC0DDD2DD11DCE01880FAA
:102FF000991FC80FD91FCF5BDC4F198218821A8224
:1030000034E0E32EF12CB12C8091A9028B0D8F308E
:103010001CF16A2D0E944227892F082E000C990B63
:10302000C816D90691F480913C038E9DA0018F9D16
:10303000500D112455954795559547959E016091E2
:103040003B0380913A030E942315B00EF1E0EF1A82
:10305000F108D1F61F5FACCF87FFDFCF909115014C
:10306000890FDBCF90E001966091150170E00E941E
:103070006427AECF0F931F93CF93DF9380911301FB
:103080009091140123E0829FF0011124EF5BFC4F2B
:10309000891740F1C0E0D3E060911501C61740F1F7
:1030A0000E94F81520910F018091A802820F809351
:1030B000A80290911001920F90931001191654F4E8
:1030C000082E000C990B409115014150550B8417A7
:1030D00095071CF0219520930F01DF91CF911F914F
:1030E0000F9108951182108212828F5F3396D0CF94
:1030F0000C2F10E070E0C8010E946427209113019A
:10310000820F482F50E02091A802022E000C330BB2
:1031100002171307BCF020911001022E000C330B94
:10312000201731077CF08D9F900111242F5B3C4FBD
:1031300040913C0360913B0380913A030E94231528
:10314000CF5FAACFFA01EE0FFF1FE40FF51FEF5B71
:10315000FC4F118210821282F3CFB0E0A0E0E3EBCB
:10316000F8E10C94D727EC014C81042F10E0980172
:10317000D8010E94A8279B01AC010E94BE274B01E9
:103180005C01E0E2F0E0E01BF10BA5E5B0E0AC0192
:103190009B010E94BE276B017C019F01DF010E9401
:1031A000A0279B01AC010E94C9279B01AC01280DFF
:1031B000391D4A1D5B1DC701B6010E947827F22EFA
:1031C000822F90E039E23F1520F143E0249F9001E7
:1031D000112435952795122F109500E085E5E82EEE
:1031E000EF1880911501081718F10E94F8159C81BD
:1031F00081E0992319F0903219F48FEF80930E013A
:1032000080910E01890F8C83CDB7DEB7ECE00C9472
:10321000F32725E530E0B901681B790B9B01220FEC
:10322000331F260F371F37FFD4CF2F5F3F4FD1CF2C
:103230008E2D01FD8F2D20911301622F600F7727B6
:10324000771F9B01220F331F260F371F2F5B3C4F29
:10325000412F60913B030E9423150F5FC2CF0F9354
:103260001F93CF93DF93EC0110E000E090911501E4
:103270009017110609F06CF40E94F8158C8190E00B
:103280000196817099278C83DF91CF911F910F91C7
:10329000089520911301A801420F511D9A01220F98
:1032A000331F240F351F2F5B3C4F4C8160913B0334
:1032B00080913A0396959017110651F04CF04423F3
:1032C00049F040913C030E9423150F5F1F4FCECF62
:1032D0004423B9F340E0F7CFB0E0A0E0E2E7F9E142
:1032E0000C94D327FC016280448081E08483E1E177
:1032F000F2E07490E0E9F2E0E491C0913C03C695FD
:10330000C158D0E0CC0FDD1FCD2FDD27812C75E01B
:10331000972EAA24AA94B12C55245A94E719EE2E7C
:10332000F12C80911501881638F00E94F815CDB760
:10333000DEB7E0E10C94EF27C82CD12C82E0861593
:1033400068F09C9CF0019D9CF00D1124E655FD4F0A
:1033500080913A03808380913B038183411023C095
:103360009C9CF0019D9CF00D1124E655FD4F1382AD
:10337000128220911301C601820F911D9C01220F20
:10338000331F280F391F2F5B3C4F9C9CF0019D9CE5
:10339000F00D1124E655FD4F4281618180810E942C
:1033A00023158394BECF9C9C80019D9C100D1124FD
:1033B00006551D4FF80183818823F1F081508383E6
:1033C000859DC0011124648170E00E945027FB019B
:1033D000FF27EF5EFD4F8491E82FE719E59DC001BF
:1033E0001124B7010E94502780913C03689FB001CF
:1033F0001124F8017283BDCF0E948A28B5010E9472
:1034000064278C179D070CF0B4CFF2E0F61598F402
:103410000E948A28B5010E946427F80180830E94D7
:103420008A2820913B032695622F70E00E94642732
:10343000280FF80121839C9CF0019D9CF00D112424
:10344000E655FD4F128280913C03893C58F088EC90
:103450009C9CF0019D9CF00D1124E655FD4F84834A
:10346000838387CF8431A0F784E1F2CFE9E3F3E0EF
:1034700020812E7F20833181428153816481758137
:10348000868197810E9472151092F8020E94F815A9
:10349000089560913903669570E04BE050E086E155
:1034A00091E00E949A28892B19F481E08093F80218
:1034B0000E943B209093F1028093F0020895909136
:1034C000390390FF33C09170811131C092609093A5
:1034D0003903662391F02091390330913A034091EA
:1034E0003B0350913C0360913D0370913E038091FA
:1034F0003F03909140030E947215609139036695D5
:1035000070E04BE050E086E191E00E949A28892B20
:10351000A9F01092F80281E08093F30240913C03FD
:1035200060913B0380913A030E94891708958B3282
:1035300010F09465CCCF880F982BC9CF0E94491A00
:10354000EACF682F90913903969581E0890F8B32ED
:1035500008F081E00E945F1A089581E00E94A11A9C
:103560000895682F9091390396958FEF890F09F48C
:103570008AE20E945F1A089581E00E94B11A0895BC
:1035800061E00E945F1A0895E9E3F3E080818160C1
:10359000808386950E94C01A08958091390380FF28
:1035A00003C00E94361A08950E94C41A089560E06C
:1035B0000E945F1A08958091F60281113EC00E9418
:1035C000EC0C811104C00E948A0D0E9498150E9483
:1035D00040152093390330933A0340933B035093B3
:1035E0003C0360933D0370933E0380933F039093AD
:1035F00040032E7FA1F40E9498150E94401520934D
:10360000390330933A0340933B0350933C03609358
:103610003D0370933E0380933F03909340030E94C9
:1036200031151092F8028091390380FF03C086950E
:103630000E94D71A81E08093F60208950F931F939A
:10364000CF93DF938091F8028823B9F18091F7023C
:10365000E0913903E695E81BE093F202823091F5A0
:10366000F0E0E35FFD4FE491CE2FD0E00CE416E1F3
:103670008091F302882361F01092F3020E943B20B4
:103680009093F1028093F0021092F5021092F402EE
:103690000E943B20E091F002F091F1028E1B9F0B03
:1036A0008F3F9F4750F4EC0FFD1FF093F102E09322
:1036B000F00280EF92E0F8010995DF91CF911F9120
:1036C0000F910895863049F4F0E0E65FFD4FE491F4
:1036D000CE2FD0E000E616E1CBCF893051F4E6954D
:1036E000F0E0E95FFD4FE491CE2FD0E00DE817E167
:1036F000BFCF8F3051F4E695F0E0EC5FFD4FE491E1
:10370000CE2FD0E00AEC17E1B3CF853149F4F0E0D9
:10371000EF5FFD4FE491CE2FD0E00AE318E1A8CF90
:10372000C8E2D0E00DEA18E1883109F4A1CF833274
:1037300039F4EFEFF1E0C591D49100E716E198CFAD
:10374000C4EFD1E00FE219E1843209F491CFC0ED6A
:10375000D7E00FE115E1853209F08ACF8E2F63E0C3
:103760000E943627E92FF0E0E450FE4FE491CE2F7F
:10377000D0E00CE619E17CCFFA01811101C0FB0118
:1037800009950895CF93DF93C82FD62F0E94AC15CB
:103790008C1748F00E94AC158D1728F40E94AD1AC2
:1037A000DF91CF9108958C2F0E94C01AF9CF1F93FB
:1037B000CF93DF93EC01FB011581111110C00E9422
:1037C000EB0B8272FE01E052F847E531F10508F09B
:1037D0005EC0EE5BF64D0C949A270E94CD1A812FA5
:1037E000DF91CF911F9108954CEB5AE16DEA7AE198
:1037F0000E94BC1BF4CF4DEA5AE16CEB7AE1F8CFA2
:1038000041E457E162E377E1F3CF42E357E161E45A
:1038100077E1EECF43E657E162E577E1E9CF42E5B4
:1038200057E163E677E1E4CF45E857E164E777E104
:10383000DFCF44E757E165E877E1DACF40EF55E1C4
:1038400060ED75E1D5CF40ED55E160EF75E1D0CF8A
:1038500081E00E94C01AC3CF65E082E00E94C21BD3
:10386000BECF68E086E0FACF6EE089E0F7CF64E192
:103870008FE0F4CF67E185E1F1CF88E1EACF62E242
:1038800089E1ECCF83E2E5CF6AE285E2E7CF11E0A0
:10389000A6CF549A4BB14F7E5BB15061EFB7F8940D
:1038A0009B01220F331F260F371F280F391F2817A0
:1038B000390741F4EFBF8FE594E00197F1F700C0BD
:1038C00000000895DC016D91CD0178E05BB9000046
:1038D00000C067FF4BB9660F000000C000C000C009
:1038E0004BB900C07A9591F7E2CFCF93DF93EC010B
:1038F000FB018581882309F4D2C09E013057233211
:10390000310508F0B2C00E94010D90932803809306
:103910002703FE01E150F047E232F10520F4E95AB5
:10392000F64D0C949A27809127038160809327039A
:1039300093C0809128038860809328038DC0809174
:1039400027038260F3CF809127038460EFCF8091BB
:1039500027038860EBCF809128038160EDCF8091B1
:1039600028038260E9CF809127038061DFCF8091B7
:1039700027038062DBCF809127038064D7CF0E942A
:103980005807809127038068D1CF809127038C60EE
:10399000CDCF809128038360CFCF809127038E7F86
:1039A000C5CF80912803877FC7CF809127038D7F64
:1039B000BDCF809127038B7FB9CF80912703877F6D
:1039C000B5CF809128038E7FB7CF809128038D7F5C
:1039D000B3CF809127038F7EA9CF809127038F7D5E
:1039E000A5CF809127038F7BA1CF0E94580780919C
:1039F00027038F779BCF80912703837F97CF809179
:103A000028038C7F99CF8091270382FB992790F917
:103A100021E0922790FB82F990FB83F987CF809178
:103A20002803982F909591708E7F892B90FB81F9B8
:103A300083CF90912703892F8F7B96FF806476CF69
:103A40000E94580790912703892F97FB87F9805888
:103A50006DCF81E00E948D0D809127039091280306
:103A60000E94060D0E94580780E0DF91CF910895D3
:103A700080E0F0CF90912703892F8F7E94FF8061A3
:103A800055CF90912703892F8E7F90FF81604ECF75
:103A900090912803892F877F93FF88604DCF81E025
:103AA000E4CFCF93DF93EB0186319C4711F50E9461
:103AB000EB0B9D81992399F08A7A91E009F490E0CB
:103AC0009093F902811109C089E20E94C30B0E9400
:103AD000440C80E0DF91CF91089585E3F6CF80918B
:103AE000F902811104C089E20E94CB0BF0CF85E37B
:103AF000FBCF81E0EFCF0F931F93CF93DF93C42FC2
:103B0000D22FFC0185818823C9F04093FC020E94DA
:103B10003B209093FB028093FA0280E28C0F883066
:103B200040F4C77081E001C0880FCA95EAF70E948F
:103B30000405DF91CF911F910F9108951091FC0220
:103B4000141332C08091FA029091FB020E9453201C
:103B5000883C910548F5C0E2CD0F1D17B9F080E211
:103B6000810F883040F4177081E001C0880F1A95EA
:103B7000EAF70E940B05C83048F481E09D2F97704A
:103B800001C0880F9A95EAF70E940405802F0E94D1
:103B9000FB04C83070F6D77081E001C0880FDA9559
:103BA000EAF70E940B05C5CF80E28C0F883008F63B
:103BB000C77081E001C0880FCA95EAF7F2CF0F9372
:103BC000DB0188519C4787309105A0F5FC01E7583F
:103BD000F64D0C949A2706E221EE41EE6AE17CE76D
:103BE000CD010E947B1D80E00F91089507E225EE34
:103BF00045EE6BE17CE7F4CF06E221EE40EE68E1B2
:103C00007CE7EECF07E225EE44EE69E17CE7E8CF02
:103C100006E221EE42EE6CE17CE7E2CF07E225EE20
:103C200046EE6DE17CE7DCCF08E221E045EE6EE197
:103C30007CE7D6CF15968C91882319F01092FC0260
:103C4000D3CF81E0D1CF90930203809301030895F5
:103C5000E0910103F0910203309729F00190F08187
:103C6000E02D0995089580E00895E0910103F09119
:103C70000203309799F020912901222359F02091D5
:103C8000270327FF07C0DC012C9111962C93119775
:103C900026E02C930280F381E02D09950895E091B0
:103CA0000103F0910203309739F022E0DC012C93FC
:103CB0000480F581E02D09950895A3E0B0E0E3E6E6
:103CC000FEE10C94E1272091FF02309100032817B8
:103CD0003907A1F0909300038093FF02E091010364
:103CE000F0910203309751F023E029839B838A836C
:103CF0000680F781E02DCE01019609952396E2E03A
:103D00000C94FD27A3E0B0E0E8E8FEE10C94E12785
:103D10002091FD023091FE0228173907A1F09093FF
:103D2000FE028093FD02E0910103F09102033097BF
:103D300051F024E029839B838A830680F781E02D5C
:103D4000CE01019609952396E2E00C94FD27FC0133
:103D5000329680912901882321F0809127039EE1EA
:103D600087FF96E080E0915008F408952191222386
:103D7000D1F38F5FF8CF662301F12091290122232F
:103D8000F1F02091270327FF1AC0462F469546954C
:103D900046954E3190F4677021E030E002C0220F6A
:103DA000331F6A95E2F7840F911DFC01828190E038
:103DB0002823392381E0232B69F480E00895FC0156
:103DC000329608962191261721F0E817F907D1F7C6
:103DD000F4CF81E008959C01FC0132969FEF80E0D2
:103DE0004191461751F09F3F19F4411101C0982F9E
:103DF0008F5F8630A9F79F3F09F40895290F311D81
:103E000097FD3A95F90162830895FC013296089670
:103E10002191261303C0DF0111971C92E817F907BF
:103E2000B9F70895E62FE695E695E695EE3168F444
:103E3000E80FF92FF11D677021E030E001C0220F7B
:103E40006A95EAF78281822B82830895E62FE695B0
:103E5000E695E695EE3170F4E80FF92FF11D6770E5
:103E600021E030E001C0220F6A95EAF720958281B7
:103E700028232283089520912901222339F02091BB
:103E8000270327FF03C00E94121F08950E94EB1E04
:103E9000089520912901222339F02091270327FF3B
:103EA00003C00E94261F08950E94051F0895FC016B
:103EB000329680912901882351F08091270387FF52
:103EC00006C08EE1DF011D928A95E9F7089586E02C
:103ED000F9CFDC01FB0111969C9111978181981318
:103EE00022C012968C911297882319F0928189131F
:103EF0001AC013968C911397882319F09381891314
:103F000012C015968C911597882319F09581891305
:103F10000AC014969C91992321F081E024812913F1
:103F200003C080E001C081E08170089508950E947F
:103F3000961F0895811106C081E0809303030E94BB
:103F4000971F089582E0F9CF83E0809303030E94D6
:103F5000971F08950E949A1F089581E0809303039C
:103F60000E94971F08950E94AD1F08950895089517
:103F70000E94B71F0895089508950E94B61F0895DE
:103F8000CF930E94BB1F0E946B110E94BC1FC0E018
:103F90008C2F0E94B010811105C0CF5FC830C1F7CF
:103FA000CF91089581E0FCCF85B7806885BF85B744
:103FB000806885BF08951F921FB61F9211248F93AA
:103FC0009F93AF93BF9380910403811113C080919D
:103FD0006B0390916C03A0916D03B0916E034196B9
:103FE000A11DB11D80936B0390936C03A0936D038F
:103FF000B0936E03BF91AF919F918F911F901FBEA1
:104000001F90189580917303843031F10E94D7037B
:104010001092040388E190E020E40FB6F894A8958C
:10402000809360000FBE2093600083B7817F84601F
:1040300083BF83B7816083BF7894889583B78E7F71
:1040400083BF0FB6F894A895809160008861809333
:104050006000109260000FBE08950E9458070E94F1
:10406000DC03089582E084BD93E095BD9AEF97BD8F
:1040700080936E0008952FB7F89480916B03909110
:104080006C03A0916D03B0916E032FBF08952FB7FD
:10409000F89460916B0370916C0380916D03909123
:1040A0006E032FBF08959C014FB7F89480916B0366
:1040B00090916C03A0916D03B0916E034FBF821B72
:1040C000930B089578941F921FB61F9211248F931B
:1040D0009F93AF93BF9380916B0390916C03A091DA
:1040E0006D03B0916E030196A11DB11D80936B030A
:1040F00090936C03A0936D03B0936E03BF91AF9147
:104100009F918F911F901FBE1F90189587E797E78B
:10411000909301088093000888E19AE00FB6F89424
:10412000A895809360000FBE90936000FFCF88E158
:104130009AE00FB6F894A895809360000FBE909314
:104140006000FFCF8091250308959B01BA019091F3
:1041500073039430E9F48F708093E9009FEF8091AE
:10416000E800915085FD06C085ED8A95F1F70000C5
:104170009111F5CF8091E80085FF0AC050E040E042
:10418000C9010E94AF228091E8008E778093E800F9
:10419000089543E050E0BC0182E00E94A52008950C
:1041A00046E050E0BC0182E00E94A5200895CF9334
:1041B000DF93EC0180912901811111C048E050E0AA
:1041C000BE0181E00E94A52080E2FE01A5E0B3E0EF
:1041D00001900D928A95E1F7DF91CF91089580913A
:1041E000270387FF05C040E282E050E0BE01EACF2E
:1041F00048E081E0FACF80917203811109C00E94EA
:104200003F240E949C248091E20084608093E2001D
:1042100008951092720308950E94AD1F0895609151
:104220006F0381E0611101C080E00E94A41F089526
:104230009091730381E0943009F080E060916F0306
:104240000E94AA1F089542E061EC81E00E94BB2316
:1042500042E261EC82E00E94BB239091730381E013
:10426000943009F080E060916F030E949A1F0895D6
:1042700080917503833009F461C030F48130D1F14D
:10428000823009F49EC008958A3009F48AC08B30C8
:1042900009F46FC0893009F050C0809174038132F5
:1042A00009F04BC08091780390917903029708F050
:1042B00044C08091E800877F8093E8008091E80007
:1042C00082FF37C09091F3008091F200029731F4A1
:1042D0008091F100813011F0863021F48091F1005D
:1042E000809325038091E8008B778093E8000E94FB
:1042F000EF2323C080917403813AF9F48091E800A0
:10430000877F8093E8008091780390917903892BCF
:1043100061F460E285E093E070E00E94FE2280910B
:10432000E8008B778093E800089560E090E080E0FB
:10433000F3CF809173038111C1CF089580917403ED
:10434000813AD9F78091780390917903892BA9F765
:104350008091E800877F8093E8008091E80080FFEB
:10436000FCCF809129018093F1008091E8008E7745
:10437000BCCF80917403813201F7809178039091D2
:104380007903892BD1F68091E800877F8093E8003C
:104390000E94EF2380917603809329010E945807A1
:1043A000089580917403813241F68091E800877FFF
:1043B0008093E8000E94EF23809177038093260387
:1043C000089580917403813A09F0B7CF8091E80095
:1043D000877F8093E8008091E80080FFFCCF809188
:1043E0002603C1CF84B7877F84BF0FB6F894A89502
:1043F00080916000886180936000109260000FBE21
:1044000080E890E00FB6F89480936100909361008B
:104410000FBE0E94B31F08950E943F240E949C2457
:10442000E2EEF0E080818460808378940E941B2714
:10443000089581E291E00E94231E08958091730304
:10444000853031F480917303853019F00E942D205E
:1044500008950E94022080917103882399F30E949D
:10446000C01F882379F30E9499220E945807EACF3F
:1044700008959A0140917A0350917B030E94412252
:104480000895492F55274330510519F168F44130FB
:10449000510509F444C04230510509F445C090E08B
:1044A00080E050E040E025C04132510549F1423200
:1044B0005105A9F784E490E04FE355E061157105DB
:1044C000C1F086EB90E049E854E06130710589F075
:1044D000E6CF99278130910581F0009729F0029766
:1044E000F1F6E6E1F4E002C0E8E3F4E0849190E064
:1044F000AF01F901518340830895E8E2F4E0F6CF7B
:1045000089E090E04EE454E06115710591F389E093
:1045100090E047E654E06130710559F3C0CF82E185
:1045200090E047E754E0E5CF8BE390E04CE354E0C4
:10453000E0CF80E189BD82E189BD09B400FEFDCFF5
:104540008091D8008F7D8093D8008091E0008260B8
:104550008093E0008091E00081FDFCCF0895AF9250
:10456000BF92CF92DF92FF920F931F93CF93DF936F
:104570006C01EB018A010E940E24F82E811123C0E8
:104580000115110539F0F80180819181C81BD90B03
:10459000C80ED91EB12CA12C2097A9F08091E8005B
:1045A00085FD22C08091E8008E778093E800011598
:1045B0001105A1F0F80180819181A80EB91EB18288
:1045C000A08285E0F82E8F2DDF91CF911F910F9162
:1045D000FF90DF90CF90BF90AF9008950E940E247F
:1045E0008823D1F2F82EEFCFF60181916F018093ED
:1045F000F1002197FFEFAF1ABF0ACECFFC018091E7
:104600007A0390917B0386179707A0F061157105D7
:1046100029F49091E8009E779093E80090E061156E
:10462000710551F4911108C08091E80082FF34C0F7
:1046300080E00895BC01F2CF809173038823C1F11B
:104640008530C1F18091E80083FD30C08091E800A1
:1046500082FDEACF8091E80080FFE1CF8091F300F6
:104660002091F200382F6115710519F028303105BD
:1046700058F091E02830310509F090E02091E800F1
:104680002E772093E800CBCF81918093F100615089
:1046900071092F5F3F4FE7CF80917303882341F06B
:1046A000853041F08091E80083FFBECF81E008951E
:1046B00082E0089583E00895FC0180917A0390914F
:1046C0007B0386179707A0F06115710529F4809187
:1046D000E8008E778093E80090E06115710551F451
:1046E000911108C08091E80082FF35C080E00895F4
:1046F000BC01F2CF809173038823C9F18530C9F1E1
:104700008091E80083FD31C08091E80082FDEACF0E
:104710008091E80080FFE1CF8091F3002091F200CA
:10472000382F6115710519F02830310558F091E0E6
:104730002830310509F090E08091E8008E77809371
:10474000E800CBCF84918093F100319661507109DC
:104750002F5F3F4FE6CF80917303882341F0853070
:1047600041F08091E80083FFBDCF81E0089582E0B1
:10477000089583E00895982F973028F08F708093E4
:10478000E90081E008959093E900242F762F50E00E
:10479000981731F07091EC002091ED005091F000ED
:1047A00021FD02C09F5FE8CF3091EB003E7F309348
:1047B000EB003091ED003D7F3093ED003091EB0048
:1047C00031603093EB007093EC002093ED00509338
:1047D000F0002091EE0027FDE5CF80E00895809164
:1047E000740387FF13C08091E80082FF06C08091A8
:1047F000E8008B778093E80004C0809173038111F7
:10480000F2CF0895809173038823D9F38091E80053
:1048100080FFF8CF8091E8008E77ECCF2091E40004
:104820003091E50095E6A9012091EC00822F81707E
:1048300020FF06C08091E80080FF06C080E0089558
:104840002091E80022FD1AC080917303882389F02B
:10485000853089F08091EB0085FD0FC02091E40048
:104860003091E50042175307F9F29150E1F684E0E8
:10487000089582E0089583E0089581E008950E94FC
:10488000AE240E94B624E0EEF0E080818160808357
:10489000E8EDF0E080818F77808319BCA7EDB0E070
:1048A0008C918E7F8C9380818F7E80831092720397
:1048B00008950F931F93CF93DF930E94AE240E941D
:1048C000B624C8EDD0E088818F778883888180689E
:1048D000888388818F7D888319BC1092730310921E
:1048E0006F03109271031092700300EE10E0F80154
:1048F00080818B7F808388818160888342E060E053
:1049000080E00E94BB23E1EEF0E080818E7F808317
:10491000E2EEF0E080818160808380818860808326
:10492000F80180818E7F8083888180618883DF9118
:10493000CF911F910F910895E8EDF0E080818F7E77
:104940008083E7EDF0E080818160808384E082BF36
:1049500081E0809372030E9459240895E8EDF0E00D
:1049600080818E7F80831092E20008951092DA0099
:104970001092E10008951F920F920FB60F9211242A
:104980002F933F934F935F936F937F938F939F9357
:10499000AF93BF93EF93FF938091E10082FF0BC031
:1049A0008091E20082FF07C08091E1008B7F8093BD
:1049B000E1000E941A278091DA0080FF19C08091DF
:1049C000D80080FF15C08091DA008E7F8093DA00D6
:1049D0008091D90080FF96C080E189BD82E189BDC8
:1049E00009B400FEFDCF81E0809373030E94FB2099
:1049F0008091E10080FF19C08091E20080FF15C026
:104A00008091E2008E7F8093E2008091E2008061DD
:104A10008093E2008091D80080628093D80019BC16
:104A200085E0809373030E940F218091E10084FF51
:104A30002BC08091E20084FF27C080E189BD82E124
:104A400089BD89B5982F917080FFFBCF8091D800E8
:104A50008F7D8093D8008091E1008F7E8093E1006C
:104A60008091E2008F7E8093E2008091E20081607D
:104A70008093E20080916F03882309F449C084E0A9
:104A8000809373030E9418218091E10083FF29C065
:104A90008091E20083FF25C08091E100877F8093B1
:104AA000E10082E08093730310926F038091E10034
:104AB0008E7F8093E1008091E2008E7F8093E20000
:104AC0008091E20080618093E20042E060E080E05B
:104AD0000E94BB238091F00088608093F0000E94C8
:104AE0000C21FF91EF91BF91AF919F918F917F9199
:104AF0006F915F914F913F912F910F900FBE0F904B
:104B00001F90189519BC109273030E94092170CF51
:104B10008091E30087FD93E090937303B3CF1F92DE
:104B20000F920FB60F9211242F933F934F935F93E1
:104B30006F937F938F939F93AF93BF93CF93DF93A5
:104B4000EF93FF93D091E900DF708091EC00C82FC4
:104B5000C17080FDC0E81092E9008091F000877F6D
:104B60008093F00078940E94D3251092E900809100
:104B7000F00088608093F000CD2BCF70C093E900E7
:104B8000FF91EF91DF91CF91BF91AF919F918F9165
:104B90007F916F915F914F913F912F910F900FBE39
:104BA0000F901F901895AAE2B0E0E9EDF5E20C94A1
:104BB000E02784E793E02091F100FC012193CF01ED
:104BC000F3E08C379F07B9F70E9438218091E80005
:104BD00083FF1EC180917403909175039A3008F091
:104BE00017C1E92FF0E0E058F64D0C949A27803871
:104BF00099F0823809F00CC1809178038F7087306A
:104C000008F006C18093E9008091EB0085FB8827BE
:104C100080F91092E90006C08091700390917103B1
:104C2000911182609091E800977F9093E8008093C3
:104C3000F1001092F1008091E8008E77E5C08823A2
:104C400009F4D3C0823009F0E3C08091760381116A
:104C5000D6C0809178038F702FEF280F263008F090
:104C6000D7C08093E9002091EB0020FFC8C09330AB
:104C700031F48091EB0080628093EB00C0C0909192
:104C8000EB0090619093EB0021E030E001C0220F37
:104C90008A95EAF72093EA001092EA008091EB00EF
:104CA0008860EACF8111B4C0109176031F7780919C
:104CB000E3008078812B8093E3008091E800877F78
:104CC0008093E8000E94EF238091E80080FFFCCFF2
:104CD0008091E30080688093E30082E0111183E01B
:104CE0008093730395C08058823008F091C0809102
:104CF0007603909177038C3D23E09207A1F583E042
:104D00008A838AE289834FB7F894DE01139620E004
:104D10003EE051E2E32FF0E050935700E49120FF92
:104D200003C0E295EF703F5FEF708E2F90E0EA30A6
:104D3000C0F0C7968D939D932F5F243159F74FBFD5
:104D40008091E800877F8093E8006AE270E0CE01FE
:104D500001960E94FE228091E8008B778093E80004
:104D600057C0C096E7CF6091780370917903AE0188
:104D70004F5F5F4F0E943922BC01892B09F448C064
:104D80009091E800977F9093E80089819A810E9432
:104D90005C23E1CF8038E1F58091E800877F809344
:104DA000E80080916F038093F10045CF811130C0FE
:104DB00090917603923060F58091E800877F809330
:104DC000E80090936F030E94EF2380916F03882384
:104DD00011F084E005C08091E30087FDFACF81E007
:104DE000809373030E94232113C080917603813046
:104DF00079F481E0933009F080E0809371031092A0
:104E0000E9008091E800877F8093E8000E94EF230B
:104E10008091E80083FF0AC08091E800877F80933B
:104E2000E8008091EB0080628093EB00AA96E3E0BB
:104E30000C94FC270895CF93809173038823A1F0ED
:104E4000C091E900CF709091EC00892F817090FDA6
:104E500080E8C82B1092E9008091E80083FD0E9451
:104E6000D325CF70C093E900CF910895991B79E0C5
:104E700004C0991F961708F0961B881F7A95C9F7EA
:104E80008095089587FB082E062687FD819567FD8E
:104E900061950E9436270EF4919507FC819508953F
:104EA000AA1BBB1B51E107C0AA1FBB1FA617B70750
:104EB00010F0A61BB70B881F991F5A95A9F780956C
:104EC0009095BC01CD01089597FB072E16F4009430
:104ED00007D077FD09D00E94502707FC05D03EF48B
:104EE000909581959F4F0895709561957F4F089596
:104EF000A1E21A2EAA1BBB1BFD010DC0AA1FBB1FDE
:104F0000EE1FFF1FA217B307E407F50720F0A21B4F
:104F1000B30BE40BF50B661F771F881F991F1A94BC
:104F200069F760957095809590959B01AC01BD01E6
:104F3000CF010895EE0FFF1F0590F491E02D099425
:104F40000E94A827332312F48A1B9B0B0C94B927C9
:104F5000A29FB001B39FC001A39F700D811D1124BA
:104F6000911DB29F700D811D1124911D08950E9405
:104F7000A827B7FF0895821B930B08950E94A827C6
:104F8000A59F900DB49F900DA49F800D911D11249D
:104F90000895B7FF0C94BE270E94BE27821B930B77
:104FA00008952F923F924F925F926F927F928F92CD
:104FB0009F92AF92BF92CF92DF92EF92FF920F93A8
:104FC0001F93CF93DF93CDB7DEB7CA1BDB0B0FB6B2
:104FD000F894DEBF0FBECDBF09942A88398848886F
:104FE0005F846E847D848C849B84AA84B984C88405
:104FF000DF80EE80FD800C811B81AA81B981CE0FFC
:10500000D11D0FB6F894DEBF0FBECDBFED010895E0
:10501000002E083090F0982F872F762F652F542F71
:10502000432F322F22270850F4CF220F331F441F63
:10503000551F661F771F881F991F0A95B2F7002D0D
:10504000089597FD1094002E083098F00850232FF3
:10505000342F452F562F672F782F892F912DF4CF7E
:1050600015949795879577956795579547953795B3
:1050700027950A95AAF71124002D08958F929F92E3
:10508000AF92BF92CF92DF92EF92FF92CF93DF93D6
:10509000EC01688179818A819B81611571058105A7
:1050A000910521F464E279ED8BE597E02DE133EF92
:1050B00041E050E00E94152949015A019B01AC01D1
:1050C000A7EAB1E40E94BE276B017C01ACEEB4EF0D
:1050D000A50194010E94CC27DC01CB018C0D9D1D04
:1050E000AE1DBF1DB7FF03C00197A109B04888835B
:1050F0009983AA83BB839F77DF91CF91FF90EF9035
:10510000DF90CF90BF90AF909F908F9008950E94B6
:105110003E28089580E091E00E943E280895B0E086
:10512000A0E08093000190930101A0930201B0934D
:1051300003010895FC014150504030F001900616E3
:10514000D1F73197CF010895882799270895FB015A
:10515000DC0104C08D910190801921F44150504030
:10516000C8F7881B990B0895FB01DC0102C0019070
:105170000D9241505040D8F70895F999FECF92BD55
:1051800081BDF89A992780B50895A6E1B0E044E082
:1051900050E00C940729A8E1B0E042E050E00C9404
:1051A0000729DC01A40FB51F4150504048F0CB0146
:1051B000840F951F2E910E94E22841505040D0F755
:1051C0000895262FF999FECF92BD81BDF89A0197D7
:1051D00000B4021639F01FBA20BD0FB6F894FA9A3F
:1051E000F99A0FBE08950396272F0E94E2280E9485
:1051F000E128252F0E94E228242F0C94E228019612
:10520000272F0E94E2280C94E128DC01CB01FC014D
:10521000F999FECF06C0F2BDE1BDF89A319600B40F
:105220000D9241505040B8F70895052E97FB1EF49B
:1052300000940E942C2957FD07D00E94782707FC74
:1052400003D04EF40C942C2950954095309521951F
:105250003F4F4F4F5F4F08959095809570956195A2
:105260007F4F8F4F9F4F0895F894FFCF5105510501
:10527000A105A105060622068005800527069806D9
:10528000A706A706ED1BF41BFB1B001C051C0A1C34
:105290000F1C141C191C1E1C231C281C2C1C311C2C
:1052A000341C371C3A1C3D1C3F1C421C441CCD1CAA
:1052B000411DD51C9F1CA31CD91CA71CDD1CE91C6F
:1052C000B31C3A1DB71CED1CBB1CF11C191DBF1CE7
:1052D000F51C201DC51CFB1C031DAB1CE11CAF1CD9
:1052E000E51CC91CFF1C0F1D291D381D991CD11C54
:1052F000481DFC1D021EEB1DF61D081E0E1E141E71
:10530000F7251F2608271F26082752267326082759
:04531000CA26D626AD
:10531400010000006202280850011E0A1401010164
:1053240002000E000E0E01191A1B1C1D1E1F202147
:1053340022A220D720D020C92001E200E900EA00FF
:10534400B500B600B700CD008301CC008A019201FC
:1053540094012102230224022502260227022A02A2
:10536400B300B4006F0070009F01CB019F02A00244
:10537400818283E200E900EA00B500B600B700CDFF
:10538400008301CC008A01920194012102230224AA
:10539400022502260227022A02B300B4006F00701D
:1053A400009F01CB019F02A00281828391F6F73115
:1053B40033323693F492F5973466C6000102020242
:1053C400020606060909090909090F0F0F0F0F0F35
:1053D4001515151819191919191919191919232431
:0653E400252525252525E5
:00000001FF
